:0200000400807A
:10E000000500010193270000000100006D67DEF1AB
:10E010003E33E811B1024D2DF40CDE0100E4800026
:10E0200000E480000000000000E08000000000002C
:10E0300000000000000000000000000000000000E0
:10E0400000000000000000000000000000000000D0
:10E0500000000000000000000000000000000000C0
:10E06000010000B07C5612AB73646B23232323237F
:10E0700000000000000000000000000000000000A0
:10E080000000000000000000000000000000000090
:10E090000000000000000000000000000000000080
:10E0A0000000000000000000000000000000000070
:10E0B0000000000000000000000000000000000060
:10E0C0000000000000000000000000000000000050
:10E0D0000000000000000000000000000000000040
:10E0E0000000000000000000000000000000000030
:10E0F0000000000000000000000000000000000020
:10E10000000000000000000000000000000000000F
:10E1100000000000000000000000000000000000FF
:10E1200000000000000000000000000000000000EF
:10E1300000000000000000000000000000000000DF
:10E1400000000000000000000000000000000000CF
:10E1500000000000000000000000000000000000BF
:10E1600000000000000000000000000000000000AF
:10E17000000000000000000000000000000000009F
:10E18000000000000000000000000000000000008F
:10E19000000000000000000000000000000000007F
:10E1A000000000000000000000000000000000006F
:10E1B000000000000000000000000000000000005F
:10E1C000000000000000000000000000000000004F
:10E1D000000000000000000001D1850E88AA820026
:10E1E000000000000000000000000000000000002F
:10E1F000000000000000000000000000000000001F
:10E20000000000000000000000000000000000000E
:10E2100000000000000000000000000000000000FE
:10E400000048004787E58000AFF3008000F00BF87C
:10E4100078291BF00581002070471FB51CF029FBEF
:10E420001BF0DBF91FBD00F0F5F91146FFF7F5FF12
:10E4300006F0C3FC4CF4F6F410B57D4A7D497E48E5
:10E440004BF42BF57D4A7E497E484BF426F57E49F8
:10E450007E484BF4E3F57E4A7E497F484BF41DF538
:10E460007E4A7F497F484BF418F5BDE810407E494D
:10E470007E484BF4D3B57FB54FF40010F0E9E012BD
:10E480001144806810220D18294668464BF405F5A2
:10E49000102269460020F8F79DDF7549D1F87C11FC
:10E4A000744E60F31F414FF0FF30F160F9F781D9EE
:10E4B000F1684843F0601BF07BF9002400F088F914
:10E4C00045F82400641C042CF8DB00F081F9F060AE
:10E4D0007FBD70B5684D6949694C28684FF00002EE
:10E4E000B1EB002F05D02046BDE870406549F9F733
:10E4F000B69A002145F20600FDF7BBDD10F0FF03E0
:10E5000003D0604901221C3104E028685D49030EF4
:10E51000012250312046BDE87040F9F7A09A38B585
:10E5200072B6FFF7D6FFFFF787FFFFF7A4FF0020C3
:10E5300005F00EFD162000F00EFA172000F00BFA81
:10E5400051A11F204BF456F44FF005554FA128461A
:10E55000F9F78BDC044654A12846F9F786DC03461C
:10E560004849474802227C31801E0094F9F777DA47
:10E57000FAF5D8F34F480068002803D001B0BDE891
:10E580003040004738BD10B5FEF7EAD800284ED11C
:10E590004FF4001090F8DC12C90748D0AFF28101A7
:10E5A000454A1160464A454911604FF4F041C0F8B0
:10E5B000841348F6F031C0F888134249C0F8CC13F0
:10E5C00090F84D1321F0080180F84D13062180F8D2
:10E5D0004F1390F8782390F89A1342F0260280F8AF
:10E5E000782321F0210180F89A1390F8341341F038
:10E5F000010180F8341390F87A1321F0100180F8AB
:10E600007A1390F8C31321F0C00180F8C313F021EE
:10E6100080F820133C2180F82113C82180F82213B0
:10E62000FF2180F82313BDE8104000F04DB810BD65
:10E630002804000028C38200007C20006001000044
:10E6400050C78200288020009C0B00008881200099
:10E650000000000084C9820000C02100000000000A
:10E6600084C9820000C021000000000000C0210019
:10E670000080054088812000288020000074657299
:10E68000020310210000800843000000547565203B
:10E690005365702032342031303A35373A313320E7
:10E6A0003230313900000000312E302E302E31381A
:10E6B0003200000090812000380C200055E88000D6
:10E6C0003C0C20000000F782082000F04BB800004E
:10E6D000042800D904204FF40013042983F8FC0215
:10E6E00000D9042183F89411032A00D9032283F866
:10E6F000952170474FF40011027881F897214278F4
:10E7000081F89821827881F89921C27881F89A213C
:10E71000027981F89B21407981F89C0170472A4851
:10E720002A49016070474FF40011D1F8142360F3B7
:10E730004102C1F8142370474FF40013B3F8DC22F0
:10E7400060F3082261F34B22A3F8DC2270470A2809
:10E7500002D94FF4205000E080024FF40011C1F8BC
:10E76000E80270474FF4001181F8F10270474FF44E
:10E77000001282F8100382F8251370474FF400113D
:10E7800081F8110370474FF40011A1F8120370478C
:10E790004FF40011A1F8260370474FF4001181F8DF
:10E7A0002F0370474FF40011B1F8DC2260F34102EF
:10E7B000A1F8DC2270474FF4001383F8FD0283F8C0
:10E7C0000E1383F82E23704736022000C620040162
:10E7D0000B49D1F800C04A685CF8043B1068184443
:10E7E00042F8040B8C4528BFA1F1DC0C8A4228BFFB
:10E7F000A1F1DC02C1F800C04A6020F0004070477F
:10E800001C8D20004FF000501049EFF30582104B93
:10E810009847FEE770474572726F722120506C6511
:10E8200061736520696D706C656D656E7420796FBC
:10E830007572204953522048616E646C657220667F
:10E840006F7220495251202564210A0016E8800089
:10E85000B179000010B54FF4001494F89B0340F018
:10E86000800084F89B0394F8DC02C1074FF0045049
:10E8700003D03EA1F9F79CD806E03FA1F9F798D85C
:10E8800003F45FF017F49DF794F89A03C00702D0E1
:10E890000020F9F79FDCBDE81040FFF7B5BD40EA66
:10E8A00001210120F8F7FC9C10B54FF40014002260
:10E8B00094F84C1360F3010184F84C13114645F2AF
:10E8C0000200FDF7D6DB002805D194F84C1321F0A7
:10E8D000030184F84C1310BD014640F2FB33314A6A
:10E8E000002017F43DB22F4A4143D21D4FF48063FC
:10E8F000002017F461B210B50C4608B117F4BBF252
:10E90000284A21460E32BDE8104040F20A4300205A
:10E9100017F426B217F4AFB2234AD170234A126813
:10E92000002A00D010477047214A1268002A00D000
:10E93000104770471F48006870471C4810B50E22EA
:10E940001D4910304BF4A9F21848103010BD1A4878
:10E95000801E0078704700F01F020121914040099D
:10E96000800000F1E020C0F880117047496E20530C
:10E970006F43204D6F6465005741524E494E473AF0
:10E9800020496E20484349204D6F64652C207769EB
:10E990006C6C206E6F742072756E20415050205444
:10E9A00061736B00A8AA8200288020008881200063
:10E9B0008C812000F4002000F528200010B50021F3
:10E9C0000448F9F794DEBDE8104004210248F9F745
:10E9D0008E9E0000257D20001D7E2000F0B54FF4A6
:10E9E00090777B06C0F38166C1F341754FF4A07E3A
:10E9F00040EA0104012A06D0B9426FD071456DD0BA
:10EA000010296BD04BE0A1F1C04CBCF1400C18D0E8
:10EA1000B1F1C24F20D0A1F1C04CBCF1100C03D019
:10EA2000DFF8F0C2614524D1D3F80CC24CF0806C01
:10EA3000C3F80CC2D3F80CC24CF0006CC3F80CC283
:10EA400027E0D3F80CC24CF0806CC3F80CC2D3F8AA
:10EA50000CC24CF0005CF1E7D3F80C4244F0806447
:10EA6000C3F80C42D3F80C4244F08054C3F80C4273
:10EA700015E0DFF8A4C261450BD1D3F860C34CF4B4
:10EA8000007CC3F860C3D3F848C34CF0100CC3F843
:10EA900048C3B9421DD071451BD0102919D020F0B0
:10EAA000406321F0C0404FEA860101F18041012A14
:10EAB000D1F8102218D09A43C1F81022A90001F110
:10EAC0008041D1F82C22824322EA4000C1F82C0276
:10EAD000F0BDD3F82002204303E0FFE7D3F8200283
:10EAE000A043C3F82002F0BD1A43C1F81022A900C8
:10EAF00001F18041D1F82C22024342EA4000E5E7CF
:10EB0000864B4FF08042984216D1D2F8340220F45E
:10EB10008030C2F83402D2F85C0320F4C010C2F88E
:10EB20005C03D2F85C0340EAC140C2F85C03D2F84F
:10EB3000340240F4803018E0794B984217D1D2F873
:10EB4000340220F48020C2F83402D2F85C0320F4AE
:10EB5000C000C2F85C03D2F85C0340EA4150C2F83E
:10EB60005C03D2F8340240F48020C2F834027047CB
:10EB70006C4B9A04984216D1D2F8380220F001006A
:10EB8000C2F83802D2F85C0320F4C030C2F85C034B
:10EB9000D2F85C0340EAC130C2F85C03D2F8380214
:10EBA00040F0010018E0604B984217D1D2F83802CB
:10EBB00020F00400C2F83802D2F85C0320F4C02030
:10EBC000C2F85C03D2F85C0340EA4140C2F85C033F
:10EBD000D2F8380240F00400C2F838027047534BB4
:10EBE0005A04984218D1D2F8340220F00100C2F839
:10EBF0003402D2F85C0320F4C060C2F85C03D2F89F
:10EC00005C0340EA4120C2F85C03D2F8340240F0D1
:10EC10000100C2F834027047454B9842FBD1D2F84C
:10EC2000300220F48050C2F83002D2F85C0320F4A5
:10EC3000C050C2F85C03D2F85C0340EAC120C2F8BD
:10EC40005C03D2F8300240F48050C2F830027047C2
:10EC500030B54FF4A0742306C0F341724FF49075A1
:10EC6000012906D0A8421ED0A0421CD010281AD0DC
:10EC700005E0A84213D0A04211D010280FD00129DE
:10EC80004FEA820101F1804120F0C040D1F82C22EE
:10EC90000FD0824322EA4000C1F82C0230BDD3F8E5
:10ECA0002012014302E0D3F820128143C3F820125E
:10ECB00030BD024342EA4000EEE7C0F381624FF00C
:10ECC0008043012906D002281CD004281AD001282C
:10ECD00018D005E0022811D004280FD001280DD04B
:10ECE00001294FEA820101F1804120F04060D1F812
:10ECF00010220DD08243C1F810227047D3F82012A1
:10ED0000014302E0D3F820128143C3F82012704778
:10ED10000243F0E7000001600040002000300140A5
:10ED200000340140005001400054014000200140E7
:10ED300000100140002263494FF48030FFF74EBEBF
:10ED4000614A14230244B2FBF3F2F0B51B07D3F877
:10ED5000604344F40074C3F86043D3F8604364052F
:10ED600005D5D3F8604324F48064C3F860430725D5
:10ED7000022A04D2D3F8606302EB420407E0941E37
:10ED8000062C0FD2D3F8606302EB4204E41DA540C9
:10ED9000AE43C3F860638D88A540D3F86043254334
:10EDA000C3F86053032A03D0052A01D0072A10D1E3
:10EDB00091F824500124A71E012DD3F85C53A2F131
:10EDC000010607EB560604FA06F418D0A543C3F86B
:10EDD0005C534C89002C0C8913D00C2545EA440463
:10EDE00084603A4C0D6944F822504C6904608C8D63
:10EDF000012C0CD0022A27D0032A2CD031E0254345
:10EE0000E5E7042545EA44048460CC68EEE74FF466
:10EE10008054022A02D0032A0BD022E00D8E8A6A87
:10EE2000C98D42EA452244EA81210A43C3F864239A
:10EE300017E00D8E8A6AC98D42EA452244EA812193
:10EE40000A43C3F868230CE0D3F8641321F480511B
:10EE5000C3F8641305E0D3F8681321F48051C3F8B4
:10EE60006813C068F0BD0122028140F6FF71C160E5
:10EE70000021818080F824100286C185418181852E
:10EE800070470029816802D041F0010101E021F0C2
:10EE9000010181607047016070470029816802D0DC
:10EEA00021F0040101E041F004018160704710B5D8
:10EEB000054B14240344B3FBF4F30260034840F809
:10EEC000231010BD0040002000E0FFBFB020004034
:10EED00010B5C26822F08002C2600022426042691E
:10EEE000826842F006028260C26842F08002C2601C
:10EEF000026A22F0F0020262026A8B8842EA03127E
:10EF00000262C269754B1A40C261C2690B8842EA4B
:10EF10000342C2618A7802604A88120A4260C2686B
:10EF200022F08002C2600A894B891A43CB881A43B7
:10EF3000C260CA89012303EB02220B8A1A43826052
:10EF4000026922F02202026102698B891A4302617E
:10EF50004A8A02640A8A082A1AD1CA8A52B1826A83
:10EF600022F0F8028262826A0B7D022444EAC30323
:10EF70001A4382620A8B002A0AD0826A22F47C52E7
:10EF80008262826A497D042343EA01210A43826244
:10EF900010BD5349884203D10022524952480DE026
:10EFA0005249884203D100225149801406E0514958
:10EFB000884205D14C4800224F49401CFFF70EBD46
:10EFC0007047142141800C21818040F25221018040
:10EFD0000021018141810122C280018281811023AF
:10EFE000C38142820F2303754275C182018370473A
:10EFF00002E0436A01F8013B521E92B2F9D2704717
:10F0000002E011F8013B4362521E92B2F9D27047FE
:10F010000B060DD5012A13D0036C23F000430364C3
:10F02000436C43F001034364836C23F00103836466
:10F030000B0704D0012A426813D08A43426070470C
:10F04000036A43F008030362036A23F008030362C0
:10F05000836C43F001038364036C43F00043036457
:10F06000E6E70A43EAE702460020B1F5807F04D0D4
:10F0700052690A4200D001207047516CC907FAD189
:10F0800070470129016903D021F010010161704727
:10F0900041F01001FAE710B5C46844F08004C46080
:10F0A000046A24F0F0040462046A44EA0212026270
:10F0B000C2690A4C2240C261C26942EA0342C2618B
:10F0C000CAB20260090A4160C16821F08001C160D2
:10F0D00010BD11431943C16070470000FFFF00F8E5
:10F0E0000020014001000040010000080010014024
:10F0F00000100020004002400004002000224FF0D9
:10F1000004515D48FFF76ABC03795C49012B026832
:10F110004B6830D093434B604279012A2AD10022B8
:10F120004A6382798AB3012A3DD08A6E03681A4302
:10F130008A66C27952B3CB6B026893431343CB63A5
:10F14000027A7AB38B6C0268934313438B644FF05B
:10F1500080414FF4E052C1F84423D1F84423C06801
:10F1600044F620635843FF2303EB5030C0B2024300
:10F17000C1F84423704713434B60427A002A8A68DF
:10F18000006804D002438A60704702E011E08243C5
:10F19000F9E78A6B03689A438A630A6E03681A4325
:10F1A0000A66C6E70AE08B6B0268934313438B63DE
:10F1B000BFE7CA6B03689A43CA63C1E78A6C0068F9
:10F1C00082438A64E0E74FF0FF3101600021017162
:10F1D00041718171C171017241721421C160D3E723
:10F1E000264A0029116B01D0014300E081431163DD
:10F1F000CAE72249C864C7E7204A0029516B01D0F9
:10F20000014300E081435163BEE701211E280ED96E
:10F21000A0F12002032A01D8001F08E0242805D00D
:10F22000252803D0262801D0FF20ADE70B3801FAAE
:10F2300000F0A9E71E28A7D9A0F12001032901D8D1
:10F24000001F08E0242805D0252803D0262801D057
:10F25000FF2099E70B38C0B296E74FF080410028B5
:10F26000D1F8440302D040F4805001E020F48050F3
:10F27000C1F8440388E700000001000C00100040C2
:10F280007FB5044600200090019002900390102268
:10F290002146684608F0F0FA6A46FE491046F9F73A
:10F2A0008CDD054610226946204608F0E5FA04B0D8
:10F2B000284670BD7CB509F05FFE00283ED109F0FC
:10F2C000DDF904003AD00220207001206070062190
:10F2D000A1701022E270FF2222715D22A4F80520A5
:10F2E000E071A1600020E060651D42F29270FDF7C0
:10F2F00079DA006E0107C0F3071201EB0251C0F387
:10F300000E3201EB421101EBD060E349C5F80B006E
:10F31000097AC9070AD0D5F80710CDE90010D5F849
:10F3200003300322DD49DE48F8F799DB02B02146BD
:10F33000BDE87040142203200AF0F1B97CBD1FB56E
:10F3400002208DF80C006E20ADF80400CD20009056
:10F35000D548D44B002201A9006816F443F60028D2
:10F3600008D0D0200090D148CE4B002203A90068DD
:10F3700016F438F61FBD38B5CD4C606950B9CD488C
:10F3800000900023012241F28831CBA008F019FA45
:10F39000606128B1BDE83840C548143017F43EB468
:10F3A000BD480078C00707D0BDE83840BB490022FF
:10F3B0005831BB48F8F7539B38BD10B5BC4C606959
:10F3C000002805D004F1140017F45DF400206061FA
:10F3D00010BD2DE9FF5F00240A46029410218DF82C
:10F3E0000810B34F0A2103948DF8091007F1200883
:10F3F000B7F806C00126D8F8043025464FF00709B3
:10F40000BCF5006F0DD9BD8002208DF80A00180AE6
:10F410008DF80C00180C8DF80D008DF80B30180EBF
:10F4200014E0B988DFF894A2614504D0D8F81CC074
:10F430000B44634577D1B86938F497F168B1BD8062
:10F4400005208DF80A00D8F8040062E0CDE90096A6
:10F450008DF80E0002AB0422A3E04FF4001090F8E8
:10F46000140380060AD5B888001B102806DBB8698B
:10F470002044FFF705FF1034A4B2F4E7874944465F
:10F48000012298315046D8F80430F8F7E8DA07F04E
:10F490008DF9A0896168BA88BB6907F059FA4FF401
:10F4A000805A20B300244FF0080BB8F80C003969DB
:10F4B00007F0ABF917F4CCF1F861B8F80C004FF491
:10F4C0008052396938F481F18246F86917F4CDF138
:10F4D000BAF1000F28D0641C032CE6D307F07EF9A4
:10F4E000BD803869C8F804008DF80AB011E007F053
:10F4F00075F9BA88D8F804001044C8F804003969CE
:10F50000421A524502D301F580513961BD808DF810
:10F510000A60010A8DF80C10010C8DF80B008DF8B3
:10F520000D10000E92E742E0D8F804003969401A45
:10F53000B0F5805F1ED900243969B8F80C0001F5D8
:10F54000805138F42FF017F483F1F8613969B8F875
:10F550000C004FF4805201F5805138F436F18246A8
:10F56000F86917F482F1BAF1000F03D0641C032C80
:10F57000E2D3B3E707F032F9BD803869C8F8040078
:10F58000020A8DF80C208DF80A90020C8DF80B0001
:10F590008DF80D20000ECDE900968DF80E0002AB1F
:10F5A0000422F978002040F4FDF0BDE8FF9F0B46EF
:10F5B0003A4900900222B0315046F8F750DABD8047
:10F5C00006203EE72DE9F04F8DB00746002005905C
:10F5D000069007900B780E464C1C30498DF8203071
:10F5E0000222E03135480097F8F739DA9DF82030EB
:10F5F0002F4D4FF0100B4FF0030A4FF001090C2B69
:10F600000ED26BB12D4805F12008C01E0C2B7DD207
:10F61000DFE803F07C0CCAF9F7F6F5F47CF3F2F1BD
:10F620008DF814B08DF81530FF20BCE1112F6ED18C
:10F630001F4901224A31032009F040FD98F82A00B1
:10F64000464610B1002009F050FA4FF4001090F82F
:10F650001403800602D52046FFF712FE23788DF8AA
:10F66000213062788DF82220A078E17800EB01202B
:10F6700080B2ADF823002179677901EB072189B2C7
:10F68000ADF82510A77994F807C007EB0C27BFB297
:10F6900016E000009C032000408120001401800837
:10F6A0000030102178AC820048852000448520007D
:10F6B000B08220003FF380006466750003311021A2
:10F6C000ADF8277094F808C094F809800CEB082C6A
:10F6D00094F80A80E47A4FEA084808EB046464442A
:10F6E000CDF82940CDE90020CDE902170494062287
:10F6F000F749F848F8F7B3D99DF821003072BDF802
:10F7000023007081BDF82500B08101E030E241E0C6
:10F71000BDF827103183DDF8291001F58061F16112
:10F72000A0F51C51933938D0EBA10022ECA008F0D1
:10F7300045FF86F82890EA684C4622B18DF80140D2
:10F740006946E878904707F031F8B0890DF1210358
:10F750000C22002107F0FCF808B3EA6822B18DF80A
:10F7600001A06946E878904707F038F8B08937F487
:10F77000C1F737F4CEF78DF814B08DF815408DF839
:10F780001640CDE900A405AB0422E978002040F43E
:10F7900009F06C700DB0BDE8F08FD7A1C5E707F098
:10F7A0001DF80C207060E6E7072F03D0C84900223F
:10F7B000C0312CE02078617800EB012083B2A8F8FA
:10F7C0000C30A078E27800EB0220227964791204F0
:10F7D00002EB04628018C8F8040001D00C2802D1A2
:10F7E0000021A9802961BA49009002227C31B948E0
:10F7F000F8F735D9CEE79BE14FE123E1C6E076E0AB
:10F8000066E041E0FFE7032F05D0BC490022B14884
:10F81000F8F725D9BEE720786178444600EB01204F
:10F8200083B2B649A8F80C3001226839A948F8F724
:10F8300016D906F0BBFF0120FAF763DCA870A08997
:10F8400037F4F7F704460120FAF7AFDC06F0C6FFFD
:10F85000AA49A048234601224039401EF8F7FFD8A4
:10F8600014B18DF8169009E005208DF81600EA68AD
:10F8700022B18DF801A06946E87890478DF814B060
:10F8800050468DF815A0CAE09C49002224319148C9
:10F89000F8F7E5D8142016F46BF700203EF4C2F117
:10F8A000EA682AB102208DF801006946E87890479D
:10F8B000142016F45DF792A14FF00450F8F778D8B1
:10F8C00006F074FF4FF47A7103200AF027FC61E719
:10F8D0008A4900224431F8F7C2D88FA14FF0045072
:10F8E000F8F766D8D4210320FEF7D9FF52E7032F9B
:10F8F00003D082490022803189E72078617844462C
:10F9000000EB012080B2A0F51C51A8F80C0093393F
:10F910003AD042F29270FCF765DF006E0107C0F347
:10F92000071201EB0251C0F30E3201EB421101EB61
:10F93000D0600023C4E90003AB808DF814B0062129
:10F940008DF81510010A8DF81810010C8DF816901D
:10F950008DF819108DF81700000E8DF81A008DF82B
:10F960001C3066498DF81D304C468DF81B308DF8E3
:10F970001E30012260316B48F8F771D80920CDE9BB
:10F98000000405AB0422EEE00020D2E707218DF849
:10F9900014B08DF81510092F0CD03B460122624996
:10F9A000F8F75DD802208DF81600CDE900A905AB67
:10F9B0000422D8E098F82010C34629B15A49002201
:10F9C0009C39F8F74CD827E07078B178C82200EB62
:10F9D000012087B2F078317900EB012084B2707990
:10F9E000B17900EB01201FFA80F8F079317A4346B3
:10F9F00000EB012086B26FF0010101EB440001EB46
:10FA0000470189B2CDE9002180B2029022463946F1
:10FA100000203EF43AF138B150468DF816A0CDE9F9
:10FA2000000905AB04229EE08BF820903E4929484E
:10FA3000CDE900483B4604225839401E0296F8F7AB
:10FA40000ED8A7E60022394940F275203EF417F09F
:10FA500035494446B8F8223001223C311D48F7F7B9
:10FA6000FEDF85F800908DF814B009208DF81500A0
:10FA70008DF8169000208DF8170008208DF81800DA
:10FA8000608C8DF81900000A8DF81A00072049468D
:10FA900005AB0422CDE9000165E0052FD1D1207826
:10FAA0006178022200EB012083B2EB80A078E1783C
:10FAB00000EB012080B228811B4900906831054885
:10FAC000F7F7CDDF2989E888FFF783FC62E60000BD
:10FAD00034028008033110217061746368000000F3
:10FAE0002573206265696E67206F74612D656420DF
:10FAF00025336425250000006170700090038008A4
:10FB000064667520737563636573732C2072656218
:10FB10006F6F742100000000646675207265626F6B
:10FB20006F74210002331021DC048008F28220006F
:10FB30008DF814B00B208DF8150002A942F29070D8
:10FB400037F4B3F420B102208DF81600FF2003E053
:10FB50009DF808008DF8169004218DF81700CDE966
:10FB6000001905AB0A46E97800203FF41BF611E6C0
:10FB7000012288498848F7F772DF0BE62DE9FE433A
:10FB8000864D0446A5F1200688466868B188EA6972
:10FB90008DE807007F49804F234604223C313846D8
:10FBA000F7F75DDFB0886B6801195A18E9698A4276
:10FBB00010D90090CDE9014176490422AC31384694
:10FBC000F7F74DDF03B00022BDE8F04374497548F4
:10FBD000F7F7459F317841B1B16922460844414663
:10FBE0004AF45BF1B08820443FE04FF4001090F8F5
:10FBF000140380060AD5002705E008EB0700FFF78D
:10FC00003FFB1037BFB2E01B1028F6DAB188B069AD
:10FC10002246084441464AF440F1B088204481B26B
:10FC2000B1806A68E869801A401A09D04FF400620E
:10FC3000914205D0A04200D920460844904215D9EF
:10FC400006F0B4FDA8896968B288B36906F080FE41
:10FC5000D0B106F0C3FDA88937F44CF537F459F557
:10FC6000B1886868084468600020B080B18868681E
:10FC7000084464214843E96903B0B0FBF1F1BDE8F1
:10FC8000F04349A008F09ABC06F0A8FDE8E710B5DB
:10FC90000024DDE90201042A0BD0022A0CD04049DD
:10FCA0001346012220313F48F7F7D9DE40F20A40DF
:10FCB00010BDFFF787FC01E0FFF760FF204610BD95
:10FCC000F8B51C46009336491546064613460222EF
:10FCD00054313448F7F7C3DE052D10D1E0070ED0BC
:10FCE00034482E4C203C0670A069002807D140F211
:10FCF0005A33314A4FF4006116F432F0A061F8BD76
:10FD0000F8B52C490A78824221D1244CFF20203CAE
:10FD10000870A069002610B116F4ADF0A6611F4D61
:10FD200095F82A0020B185F82A60012008F0DDFE50
:10FD300095F8280001280AD185F82860E268002A91
:10FD400005D003208DF801006946E0789047F8BDA2
:10FD50003EB5044618484A38D0E90B12CDE90012E6
:10FD6000A0F18001836AA82202A83FF480F430B198
:10FD70000A499DF808002039C870CC603EBD08498A
:10FD800008489DF8083001228031801EF7F767DEB1
:10FD9000FF203EBD8405800803311021D082200061
:10FDA000A8068008023310210808080825336425B6
:10FDB000250000002C8020008EAC8200062804D292
:10FDC000F84A22F810100120704700207047F549CA
:10FDD00031F810007047F34910B508390446C8716E
:10FDE000F148007AC00704D00022F049F048F7F744
:10FDF00036DEEC4900221C39EF48CA610A624A62C9
:10FE00000178EC4A20463EF4AAF308B1002010BD68
:10FE1000012010BD10B589B9E2494A8922B1E649ED
:10FE200009783EF446F458B1DF480078C00705D0A1
:10FE3000DE4900229031DE48F7F711DE002010BDC8
:10FE4000012010BD1CB5C1B9D6490024CA880B8950
:10FE500042F60211CDE90014D749521C92B209783A
:10FE60003EF454F458B1D0480078C00705D0CF49CB
:10FE70000022D431CE48F7F7F2DD00201CBD01206E
:10FE80001CBD0EB5C74A53895BB1ADF808100221FD
:10FE900002AACDE90012C849012209783EF400F512
:10FEA00050B1C1480078C00704D00022C349C048FF
:10FEB000F7F7D5DD00200EBD01200EBD2DE9FC4178
:10FEC000B94E8046BA4F307A14460D46C00707D067
:10FED000BA4900942B78022244313846F7F7BFDD47
:10FEE000307BC0070BD02A462146B548F8F70DD81D
:10FEF000B2490346012280313846F7F7B0DDA949FF
:10FF000003201C390870A748C38843B1AA48CDE92B
:10FF100000450122017840463EF4C2F458B13078E1
:10FF2000C00705D0A549002290313846F7F797DD84
:10FF30000020BDE8FC810120FBE71CB5994C0223A1
:10FF40001C3C2370974B9B883BB1CDE900219A491B
:10FF5000022209783EF4A4F458B193480078C0070F
:10FF600005D096490022D0319148F7F778DD00207E
:10FF70001CBD01201CBD2DE9FF5F8B4E0024824675
:10FF80008DF80040307A8846A146C00705D00B4660
:10FF900001228C498648F7F762DD824F864DA7F132
:10FFA0001C0BB8F1020F16D0B8F1060F2FD0B8F124
:10FFB0000A0F36D03079C00705D082490022383187
:10FFC0007B48F7F74CDD9BF80200D84601282DD07E
:10FFD000022847D143E0388808B97888A8B1307A38
:10FFE000C00705D07149002228317148F7F737DD85
:10FFF0007B883A88297850463EF4E1F20028E2D026
:02000004008179
:1000000001208DF804000124DDE70220F9E768787B
:10001000062804D2798827F81010062068708BF81B
:10002000029060481A3800F085FDCCE7F8883F89D7
:10003000401C1FFA80F9307AC00705D05B490022C6
:1000400058315B48F7F70BDD3B464A462978504666
:100050003EF418F330B101208DF8040004E08DF86F
:10006000049001E0002C07D0D8F80C30002B03D00E
:100070006A46514628789847BDE8FF9F2DE9F04130
:10008000494E4B4F1446307A0D46C00706D00B46FA
:100090004C49012278313846F7F7E1DC022D0FD0C8
:1000A000404A042D13D0052D34D03079C0072CD010
:1000B0003846BDE8F04143490022B431F7F7CF9C00
:1000C00021880020FFF77AFE618801202FE03A4D59
:1000D0006878062805D22188491E22F810100620CB
:1000E0006870A01D1022384949F48CF678B1364961
:1000F000A01D1022103149F485F6002805D1A188F1
:100100000320FFF75BFE04206870BDE8F081A18842
:1001100002200CE06088A0F524510239F5D1218835
:10012000D0888842F1D210898842EED30520BDE8FC
:10013000F04143E62DE9F04186B0804602200C9F55
:100140008DF808001848ADF80E101D46007A1646C6
:100150000C46C00708D01B49CDE9006523460322A1
:10016000FC311348F7F77BDC0E484089B0420DD1D3
:1001700000208DF80C004CB9022D07D13878797821
:1001800000EB012000F001008DF80D0005481C383F
:10019000C368002B04D0084802AA4146007898475B
:1001A00006B0B2E718832000408120005007800885
:1001B00000301021B4AB82002D8020006808800838
:1001C0000000502178098008A4AC82001FB50321EB
:1001D000ADF80630FC4B8DF800105989914201D1E1
:1001E000012108E0D988914201D1002103E09988DA
:1001F00091420CD102218DF80410F3491C39CB68CF
:10020000002B04D00146F1486A46007898471FBD8C
:100210007FB5ED4D0146089CED8840F604509542AF
:1002200011D104208DF8000000208DF80400E6486C
:10023000ADF808301C380394C3681BB1E3486A4624
:1002400000789847002004B070BD10B5E04C06203F
:10025000606242F29370FCF7C5DA0020206142F23E
:100260009270FCF7BFDA006E0107C0F3071201EBD2
:100270000251C0F30E3201EB421101EBD06060611C
:1002800010BD2DE9F8438046CF480838C279424571
:1002900024D1FF21CD4ECC4FC17106201C3F707080
:1002A0000024BC707C70FFF7D0FFC94D95F82A0080
:1002B00020B185F82A40012008F017FC95F82900A4
:1002C00001280BD185F829403B69002B06D003207B
:1002D0008DF801006A46414630789847BDE8F883BA
:1002E0007FB50446002000900190029003901022F8
:1002F0002146684607F0C0FA6A46B6491046F8F744
:1003000050DD054610226946204607F0B5FA28461A
:1003100099E710B5002303E030F8024B62405B1C04
:10032000B3EB510FF8D3104610BD2DE9FE4FDFF8A7
:100330009892A94FA9F11C09A84E99F8000003282A
:1003400047D0002202A940F275203DF498F3BDF891
:1003500008009F4CC01E80B220F00F00ADF80800CE
:10036000E3696268991A814200D30146307A8DB2FE
:10037000C00706D0CDE90025032299493846F7F792
:100380006EDBA089FCF72EDA06464FF42273954AFD
:100390002946002015F4E4F4070023D06068A04645
:1003A00081192A46384649F478F560686421284462
:1003B00060604843E169B0FBF1F18BA008F0FEF802
:1003C0004FF4001090F81403800617D53E46002421
:1003D00011E03079C00705D0814900224039384604
:1003E000F7F73DDB0020BDE8FE8F3046FFF778FFD2
:1003F000641CA4B21036B4EB151FF6D3DFF8C8A105
:100400002A46AAF1080A39469AF80700FFF795FD2F
:10041000B9F806004C46002600B92681401CE08051
:10042000228929463846FFF774FF2081E188A28897
:10043000914205D0D8F80430D8F81C20934218D146
:100440000A228DF80020BDF80820491E01FB025148
:100450008DF80110090A8DF802108DF80400000AC9
:100460008DF803009AF8070005226946FFF726FD7C
:10047000E680384615F4FFF40120B4E72DE9F74F84
:10048000564F91F800804D78387A88B016460C4661
:10049000C00708D05249CDE90056434603225831DF
:1004A0004D48F7F7DCDAB8F1100F38D1DFF81891C2
:1004B000DFF81C814FF0000AA9F11C09062D31D08C
:1004C000012D7CD0092D7BD00A2D7AD0032D26D189
:1004D000032E24D1387AC00705D0A37801224549DC
:1004E0003D48F7F7BCDAA07801286BD005208DF8DD
:1004F0000000012269460898FFF7E0FC88F829A06F
:10050000D9F81030002B0AD0A07801285BD0032046
:100510008DF8050001AA2D480899007898470BB07E
:10052000BDE8F08F092EFAD1E1782079A27901EBAC
:10053000002061794546090401EB02614418B8F8CE
:100540000C0042F2937842F2927640450ED128692F
:10055000A04214D828A008F031F8AE8106208DF80A
:10056000000092208DF801002720F9E0B042D6D19A
:100570006869A04203D825A008F020F8CFE7144905
:1005800001222A31032008F099FD95F82A0010B1C4
:10059000002008F0AAFAA889FCF724D94FF0010B33
:1005A0008DF80CB00168CDF80D1041680646CDF805
:1005B00011108068CDF81500CDF819A032E074E074
:1005C00084E0A1E0D4E0D5E0188320002D80200055
:1005D000D08220009C0320000030102140812000A8
:1005E000040B8008DCAC8200080808082533642569
:1005F00025000000A40C8008617070206E6F206ED2
:10060000656564206F7461210D0A00007061746378
:1006100068206E6F206E656564206F7461210D0A1D
:10062000000000004FF4001090F81403800603D57A
:100630000DF10D00FFF754FE112203A90898FFF7F2
:100640003DFC0C206860B06800F58060E861397A94
:10065000C90714D0AA89424501D1296900E0696916
:100660000094CDE9011002D14FF0010301E04FF0F9
:1006700000034FF00402F449F448F7F7F0D9A989D0
:10068000414501D1F2A100E0F2A10022F3A007F060
:1006900095FF85F829B0D9F810305846002B3FF463
:1006A0006DAF8DF801006A4635E7032E7FF466AF23
:1006B000387AC00705D0E44900226C31E348F7F7E7
:1006C000CED909208DF8000001224CE0072EEDD193
:1006D000E0782179A27900EB012081B260790024D1
:1006E00000EB022080B24FF6F072C01E1040B1FB4A
:1006F000F0F1A9F80410A9F806A0FFF716FE641C93
:10070000E4B2082CF9D30AE7072EFCD1E07821796E
:10071000A27900EB01206179090401EB026145181F
:10072000387AC0070AD0D8F80400CDE90005C649D8
:10073000A3780322A831C548F7F791D9C8F8045027
:10074000D8F81C10A94203D90BB0BDE8F04FECE576
:1007500003218DF80010B8F80C008DF80100000A94
:100760008DF80200032269460898FFF7A7FBD6E63A
:100770000420BCE60220CBE62DE9F843BD4EB34F82
:10078000BD4D307A14468846C00707D028780090BF
:1007900023780222B9493846F7F761D9207805282D
:1007A0001DD2DFE800F0038D2A387F00207920B1C8
:1007B000012815D0022812D112E0B1A007F0FEFEE8
:1007C000307AC00705D0AD49002244313846F7F7EA
:1007D00046D901214046FFF754FB012028706FE005
:1007E0003079C00705D0A549002284313846F7F793
:1007F00036D9ABA007F0E2FE62E0207900285FD195
:10080000307AC0075CD09D4963790122C4313846F3
:10081000F7F725D954E0E08878B13079C00708D0DF
:1008200028780090954923790222FC313846F7F761
:1008300016D900203DF4F6F142E0207920B3A0491A
:10084000012802D002283BD114E02878012837D1B2
:1008500042F29370888106208DF8000093208DF875
:10086000010027208DF80200032269464046FFF769
:1008700025FB25E02878022822D1C86949688842EA
:100880001ED9FFF752FD1BE02878032818D1002459
:100890002C70EA78A2B1784940462831FFF7EEFD86
:1008A000EC700DE0207958B9287858B1227AEA70B6
:1008B000142A00D914227048E168283049F4EDF276
:1008C00000200BE522894046E168FFF7D7FDF7E7F6
:1008D0003EB5044668484078022814D102AA694609
:1008E00020463DF484F1644906221431684649F4F7
:1008F00089F2002807D160489DF8082014308179DA
:10090000914200D1C4713EBD5B491431C979814225
:1009100001D1FFF760BA70472DE9F043564E044607
:1009200000F10A02477A7178002087B0002912D1BD
:10093000E17900290FD10CE0115C401C8B1EC0B284
:100940001E2B06D243181F2B03D8155CFF2D05D094
:10095000D8B2B842F0D307B0BDE8F0831029FAD17D
:10096000151835F8010F5D28F5D1A8780128F2D1C6
:10097000DFF80081DFF8D490514F98F80800C007E5
:1009800012D0D7E90413D5F807000DF1040CD5F8FF
:100990000B208CE80F00786A0090D5F8033006220F
:1009A00048494846F7F75BD8D5F80300796A88428A
:1009B000D1D13869D5F80710884204D87869D5F8BC
:1009C0000B108842C7D91020ADF80C00ADF810000C
:1009D000ADF80E00ADF812000020ADF814001E2096
:1009E000ADF818004FF47A75ADF81A00ADF816504E
:1009F00003A900203DF46BF10095A2790023214664
:100A000001203DF4B9F158B198F80410C907A2D0FB
:100A10002C490346012254314846F7F720D89AE77B
:100A200002207070206870611349A08830831431EF
:100A3000A0798871A078227861788DE80700E37842
:100A40002279617940E00000B00B8008003010216D
:100A5000617070007061746368000000257320622B
:100A600065696E67206F74612D696E672025336438
:100A70002525000040812000FC822000F40C800825
:100A80004466752073657276696365206469736373
:100A90006F7665727920656E64210D0A0000000092
:100AA0004466752073657276696365206469736353
:100AB0006F76657279206661696C6564210D0A0044
:100AC000D0822000440E800820A007F077FD42E786
:100AD000F8B506462B4968463DF44CF401002A4F10
:100AE0002A484FF0FF0417D0294D9DF800302B7095
:100AF000007AC00704D0012226493846F6F7AFDF56
:100B0000AFF28B312448C0E90316FFF79EFB224861
:100B10001430C4712878F8BD8DF800400078C00703
:100B200005D01C49002224393846F6F798DF9DF895
:100B30000000F8BD017829B917491C31098909B1AC
:100B4000012100E002210170704700004466752019
:100B5000636C69656E742074727920636F6E6E6564
:100B60006374696E672030782530327825303278AA
:100B70002530327825303278253032782530327879
:100B80000D0A3E00C4AC82000030102140812000DC
:100B90002D802000F80E8008FC8220002DE9FF4106
:100BA000A04CDDE90A300E4600250327246840F2F8
:100BB0000D41022A12D04FF0020C102A17D00C2A35
:100BC0002CD000931346022297499848F6F747DF46
:100BD00040F20A4504B02846BDE8F081012B2DD132
:100BE00060B38DF8047001218DF806101DE0052B0F
:100BF00024D118B38DF804708DF806C001788DF8F3
:100C000008104178827801EB0221ADF80A10C17812
:100C1000007901EB0020ADF80C0009E0012B0DD1AB
:100C200060B18DF804708DF806C000788DF808006A
:100C3000002CCFD001A93046A047CBE70D46C9E72D
:100C40002DE9FC47794FDDE90A54764E4FF0000953
:100C500042F292704FF0040842F2937A0A2A61D06D
:100C600006DC042A12D0062A2AD0082A04D13DE044
:100C70000E2A5CD0122A7DD06B49134601223C31EA
:100C80003846F6F7ECDE40F20A4948E065494FF491
:100C9000007010313BF4CFF1624A002069461032F7
:100CA000C0F10503D35C0B54401C0628F8DB009808
:100CB0003061BDF80400B0820620226028802EE05A
:100CC000FBF790DD58498246034601226C313846D5
:100CD000F6F7C5DE5449DAF8603001228031384633
:100CE0007360F6F7BCDE4F48001D15E05046FBF779
:100CF00079DD4D4982460346012298313846F6F7A0
:100D0000AEDE4949DAF860300122AC313846F36092
:100D1000F6F7A5DE43480C302060A5F80080484671
:100D2000BDE8FC870020B0603E480830F4E742F29E
:100D30009070FBF757DD3B4E417818360346B17093
:100D400005213170012171704078B0704905F0784B
:100D500091F8141340F00100490961F3410020F0BB
:100D6000180040F00400F0704FF40060B0800122E1
:100D70002D4900E009E0C0313846F6F770DE4FF447
:100D80007360B0600C20266098E7FBF72BDD2649E6
:100D9000064603460122D8313846F6F760DE306E4B
:100DA000204E2149243601223060EC3138467368E8
:100DB000F6F755DE5046FBF715DD80460346012267
:100DC0001B493846F6F74BDED8F8600070601849CA
:100DD000012214313846B368F6F741DE0820266058
:100DE0006CE73EB504461348D0E90612CDE900127F
:100DF000A0F5007143694FF4057202A83EF437F480
:100E000020B1084804609DF808003EBD0849074825
:100E10009DF8083001222831801EF6F720DEFF20E1
:100E20003EBD000038832000240F800802331021CB
:100E30002810800804AF82001FB502208DF80C0036
:100E40007420ADF804004FF482700090FE48FD4B12
:100E5000002201A9006815F4C5F0002809D040F26D
:100E600007100090F948F74B002203A9006815F419
:100E7000B9F01FBD38B5F64CE06950B9F54800909F
:100E80000023012241F28831F3A006F09AFCE061D0
:100E900028B1BDE83840EE481C3015F4BFB6EF4825
:100EA0000078C00606D5BDE838400022EC49ED4880
:100EB000F6F7D59D38BD10B5E54CE069002805D0A2
:100EC00004F11C0015F4DFF60020E06110BD7CB5D4
:100ED00008F052F8002842D107F0D0FB04003ED0C1
:100EE00002212170012060700622A2700322E270AC
:100EF0002171B3216171FE21A1710F21E171FF21E7
:100F00002172A8216172A0728A20E072207B04F114
:100F10000B0520F00300401C20F0E00040F01C0016
:100F200020734FF43460C4F80D0069464FF400702C
:100F30003BF481F00098C5F80600BDF80400688114
:100F4000C648007AC00605D5C54900224431C548C7
:100F5000F6F785DD17222146032008F0E0FB7CBD73
:100F60002DE9FF4FBA480C4683B090F820109946FF
:100F700090464FF0000AA0F1080B002957D090F8D6
:100F800021100398814252D1E078E8B32078AD4A2D
:100F900040F010012170E07840F2153300F00F01AD
:100FA000C1F110052844E07008EB05073C323946D2
:100FB000002014F4D5F606464246214648F46DF763
:100FC0002A4606EB0800114649F420F0A648009096
:100FD000E2780BF12A03311D301D07F0B5F89F4868
:100FE000007AC0060AD5B9B23246A048F6F78DDFBE
:100FF000034601229E499B48F6F731DDB9B2CDE99F
:10100000001AB9F1000F00E011E001D00B2200E05E
:10101000062233469BF8001003983EF4C3F30446BF
:10102000304614F428F7204607B0BDE8F08FCDE92C
:10103000008AB9F1000F01D00B2200E006222346FE
:101040009BF8001003983EF4ADF3EDE72DE9F8436B
:10105000824F80461546387A0C46C00617D584491B
:10106000804E0095637802225C313046F6F7F7DC5B
:10107000387AC0060BD5224629467C48F6F745DF6C
:101080007B490346012290313046F6F7E8DC01B097
:101090002A4621464046BDE8F043002360E701238D
:1010A0004B700B7823F0FF030B708B7823F0FF035A
:1010B0008B70131FCB70C9E730B403244C700C78CD
:1010C00063F3030424F0F0030B708B7823F0FF0329
:1010D0008B70131FCB7030BCB8E700B585B09DF89E
:1010E000002061F3030222F0F0018DF800100F21BF
:1010F0008DF801109DF80210042221F0FF018DF8F7
:10110000021000218DF803106946FFF79FFF05B01C
:1011100000BD30B40C7863F3030424F0F0030B70CB
:101120008B7823F0FF038B70131FCB7030BC8DE7DF
:101130002DE9F843494F80461546387A0C46C006DB
:1011400017D54B49474E009563780222143130463B
:10115000F6F785DC387AC0060BD522462946434887
:10116000F6F7D3DE42490346012248313046F6F70E
:1011700076DC01B02A4621464046BDE8F043012313
:10118000EEE60B7823F0FF030B708B7823F0FF0360
:101190008B70131FCB70CBE710B520B1012804D0A2
:1011A0004FF0FF3010BD012010BD42F29270FBF7EE
:1011B00019DB006E0107C0F3071201EB0251C0F307
:1011C0000E3201EB421101EBD06010BD2DE9F04F62
:1011D000DFF888800746DFF894B098F808001C4EC6
:1011E000CDB015460C46C00625D5B178607801F023
:1011F0000F01CDE90317CDE905053069327DB168EE
:101200008DE807001649DFF85C90B3880822683142
:101210004846F6F724DC98F80800C0060BD52246AD
:1012200029465846F6F771DE0D4903460122F4318E
:101230004846F6F714DC2078DFF82CA0C1060448F5
:1012400018E00000B0B082004885200044852000EE
:1012500078832000390E810061697300408120008D
:10126000781080080030102128AF82000000502143
:10127000B013800800F122001B903FD596F8203073
:101280001BB196F82100B84209D098F80400C006B6
:1012900016D596F821000222FE49009005E1281F8C
:1012A00000F0FF095FEA09700BD098F80400C0064F
:1012B000EED5F8494B4601225831F748F6F7CFDB17
:1012C0006BE2CDF800A04A46211D201D1B9B06F0B5
:1012D0007BFF98F80800C0060BD5224629465846E1
:1012E000F6F713DEEB49034601229031EA48F6F7A0
:1012F000B6DB04EB0900C078281A85B260784FF09D
:1013000000094FF0010B222818D006DC102872D0FB
:10131000122871D02028D3D104E025286ED02F28A0
:10132000CED1B4E0052DCBD121208DF85900207904
:101330008DF85C002079FFF72FFF82E1102DBFD1DF
:101340002079FFF729FFD4F80510884207D2D4F896
:101350000900B0F5483F02D808B1820704D08DF8E3
:101360005C90CDF85D9041E0E37BCC4A93B133696A
:1013700093B12379B58832F81330AB420AD1F368C0
:10138000994207D1B168884204D1B4F80D00318880
:10139000884211D0C6F8109014F8040F32F81000EB
:1013A000B080D4F80500B060B4F809003080D4F8FB
:1013B0000100F06086F81490B078B94B20F0FF007F
:1013C000B07086F81A908DF85CB03069CDF85D0089
:1013D000707E8DF861005A6842B1B24813C88DE83A
:1013E00013008DF8007069461878904723208DF817
:1013F00059000A2228E12CE1CBE1FFE7052D8AD133
:1014000026208DF859008DF85C902079012812D1A2
:101410003169B06888420ED105F0C8F90120F8F7AB
:1014200070DEB08836F405F28DF85C000120F8F724
:10143000BCDE05F0D3F9052216A93846FFF7A1FE58
:10144000974B5A688AB197480C3013C88DE813003F
:101450009DF85C008DF8007008B1022000E00320C8
:101460008DF804006946187890479DF85C000028C4
:101470000BD08DA14FF00450F6F79ADA05F096F9EB
:101480004FF47A71032008F049FE4DB0CDE5717E2E
:10149000A078B1EB101F0CD298F80420D20607D523
:1014A00000917C4903090222A4317B48F6F7D7DA80
:1014B00073E17B4A00F00F010832927802F00F03CB
:1014C000994208D098F80400C00613D500917149DC
:1014D0000222F0310BE0E3781E1DAE420BD098F8EB
:1014E0000400C00606D52D1F7549022200956A48E2
:1014F000F6F7B5DA83E01E460BEB1010491CB1FB82
:10150000F0F300FB1311664861F303020830002575
:101510008270A17804F1040A090961F3071282704C
:10152000817E491C8176016971B9828821898A424C
:101530000AD098F80000C006BAD5614900224831A7
:101540005548F6F78CDA28E155498046007D1D3173
:101550000091F0B1C0F1040208444546211D48F451
:101560009CF405F023F9297D28690422411AA888F2
:10157000009B05F0EDF905F031F9287DC0F104007C
:10158000C5B2AA44AE4201D9284600E03046301A1E
:1015900086B206F0030188F8141036F003060CD06A
:1015A00005F004F9D8F81010B8F80400294453469F
:1015B000324605F0CDF905F011F998F814204546AA
:1015C00022B10AEB0601009848F467F4E178286933
:1015D000334B014429615A688AB13248183090E887
:1015E00041108DE8411064208DF800704143A868D7
:1015F000B1FBF0F08DF80500694618789047284B4C
:101600000833997E9878B1EB101F7FF63EAF83F8D0
:101610001A9024218DF85910A17800F00F0202EBE6
:1016200011120BEB1111B2FBF1F401FB14229DF826
:101630005C10000962F3030160F307118DF85C1080
:101640001869CDF85D00092216A93846FFF799FD03
:101650001BE7142D7ED103F0E3FF30B136A803F071
:10166000FEFF03F0EFFF054606E0202215A136A895
:1016700048F49AF44FF434651022211D04A848F46C
:101680000CF42C268DF820602A4617A10DF12100BC
:101690002EE00000801180080030102124AF82006D
:1016A00070832000C8B08200646675207375636320
:1016B0006573732C207265626F6F742100000000E7
:1016C000B8128008376666313032343539613939BD
:1016D0006235343066666438663262633838336443
:1016E00036623261000000002530387800000000CA
:1016F00017F05AFF8DF8296046A94FF400703AF4AC
:101700009AF49DF81B019DF818319DF819219DF858
:101710001A118DE80F009DF81C319DF81D2176A14E
:101720000DF12A0017F040FF8DF83660202236A90F
:101730000DF1370048F4B1F31CA8F0F76CD947223B
:1017400004A91CA8F0F775D93EA91CA8F0F7B1D9D7
:10175000102200E021E03EA91B9848F49EF3CDF84A
:1017600000A01022211D48A81B9B06F0EDFC1120B3
:1017700048AE8DF8590096E80F0017AE86E80F00C6
:101780002078142200F00F0316A93846FFF7C1FC99
:101790007BE6052D01D1207930B1207800F00F01D2
:1017A0003846FFF79AFC70E613208DF859008DF843
:1017B0005C902078052200F00F0316A93846FFF749
:1017C000A8FC86F820B086F821705EE6FEB50B46D0
:1017D000DDE908510024022A03D040F20A442046E1
:1017E000FEBD4C4A5268002AF9D0002600968DF8BA
:1017F0000000CDE90151694618469047EFE72DE911
:10180000F84F454F8246DDE90A6938790025DFF84F
:101810000C811446C00606D51346022240494046B4
:101820000096F6F71CD9042C11D0092C0FD038786B
:10183000C00607D53A492346022238314046009671
:10184000F6F70DD940F20A452846BDE8F88F324632
:1018500049465046FFF7BAFCF6E72F4808B5007A2C
:10186000C00606D50093134602222E492B48F6F7F0
:10187000F6D808BD2749083191F82020002A06D063
:1018800091F82120824202D1002081F82000704787
:101890003EB525490546D1E90102CDE900020B68B4
:1018A0004FF4B672A1F5B67102A83DF4E0F658B156
:1018B000184C6560FFF7DEFA9DF8080004F1080295
:1018C0002070032151763EBD13480078C00607D52D
:1018D00014499DF80830012248311048F6F7BFD866
:1018E000FF203EBD0F2801D900207047094908316B
:1018F0004876012070470000253032782530327854
:1019000025303278253032782530327825303278DB
:101910000000000070832000408120000030102172
:101920003813800854148008A4B0820070B51346A0
:1019300001249A4A092806D2DFE800F00C15212A72
:10194000333C454C56000024224695499548F6F70D
:1019500086D812E0142900D9142111708F480A4644
:1019600019460C3007E0142900D9142151708B4816
:101970000A461946203048F490F2204670BD1429DA
:1019800000D91421917085480A4619463430F2E78F
:10199000142900D91421D17080480A4619464830CC
:1019A000E9E7142900D9142111717C480A46194627
:1019B0005C30E0E7142900D91421517177480A46B8
:1019C00019467030D7E7082900D908210A46194678
:1019D0007548D0E71E2900D91E2173480A460838E9
:1019E000017019461030C6E7072900D907216E4853
:1019F0000A461946C01FBEE72DE9FC479246DDE9BD
:101A00000A450A460026268002218DF804108DF82A
:101A10000500AAF102000827DFF880814FF00709CE
:101A200011280AD2DFE800F01E098C092C094909A7
:101A30003B095709130965097200594953460122A8
:101A40001C315848F6F70BD840F20A466BE08DF887
:101A500006901046D8F8082001A9904752482860FF
:101A6000278060E001208DF806001046D8F8082095
:101A700001A9904749480C30286098F800000CE014
:101A800003208DF806001046D8F8082001A99047D9
:101A900042483430286098F80200208043E0052056
:101AA0008DF806001046D8F8082001A990473B4859
:101AB0005C30286098F80400EFE704208DF80600F9
:101AC0001046D8F8082001A99047344848302860CB
:101AD00098F80300E1E706208DF806001046D8F8D4
:101AE000082001A990472D487030286098F805001B
:101AF000D3E78DF806701046D8F8082001A9904762
:101B000029480830286010380078C6E709208DF889
:101B100006001046D8F8082001A990472248C01FA7
:101B20002860A4F80090208800901D491D48534665
:101B300002224431801CF5F792DF3046BDE8FC8775
:101B40008DF806101046D8F8082001A990471348D0
:101B50002030286098F801009FE73EB504461348FE
:101B6000D0E90612CDE90012A0F5007143694FF4E7
:101B7000057202A83DF47BF550B909499DF808307B
:101B800001227C310748F5F76ADFFF208DF8080055
:101B9000024884609DF808003EBD0000AC83200030
:101BA000CC1480080033102137802000FCB2820062
:101BB00070B5002551F8252010E0541E264622EA73
:101BC0000403002402E0641CE4B25B08002BFAD199
:101BD00004EB45135B1E00F8013B3240002AECD1B8
:101BE0006D1CEDB2082DE5D370BDF0B503460020A5
:101BF00001464FF055344FF033354FF00F364FF06C
:101C0000FF1753F82120491C02F0553C04EA520208
:101C1000624402F0333C05EA9202624402F00F3C57
:101C200006EA1212624402F0FF1C07EA1222624422
:101C300002EB12421044C9B2C0B20829E1D3F0BD90
:101C40002DE9F0478EB080469A4616460F46184654
:101C5000DDF85890FFF7C9FF001D054601466823CF
:101C6000FC4A002014F47CF004001CD004202070F6
:101C7000677066805146201DFFF79AFF6846CDF8D1
:101C8000008007F0CFFAADF80A5001946846CDF80D
:101C9000309007F03CFB0546204614F4ECF0284653
:101CA0000EB0BDE8F0871020FAE72DE9F047824634
:101CB000984615460E461846DDF82090FFF795FF2A
:101CC000001DE44A0746014685231132002014F422
:101CD00047F0040013D005202070667065804146EF
:101CE000201DFFF765FF4B463A462146504600F05F
:101CF00078F90546204614F4BEF02846D1E71020B6
:101D0000CFE738B5446A0546002000902288A178C4
:101D100004F12C032846FFF793FF0022686A11465E
:101D200000EB8103DB6A03B10122491CC9B2082917
:101D3000F6D342B1E07801248440286A0AF0BAF967
:101D4000B0FBF4F038BD002038BD406A2C304CE7C1
:101D5000406A416002727047406A01807047F8B57E
:101D60000546446A480901F01F0204EB8001012680
:101D7000CB6806FA02F00343CB60CA6A04F12C0375
:101D800002430020CA6200902288A1782846FFF70B
:101D900057FF2D6A686900280ED0E07886402846F3
:101DA0000AF088F9002807D0B0FBF6F105F114001D
:101DB000BDE8F84014F443B7F8BD426A480902EBA5
:101DC000800001F01F01C26A8A43C2627047416A03
:101DD0000020024601EB8003401CC0B2DA620828F2
:101DE000F8D37047426A480902EB800001F01F01F6
:101DF000C06A01228A401040012800D000207047AC
:101E0000F8B504464068218948F231030844E16886
:101E10000127CA1A994253D013DC48F20603A1EBFA
:101E20000302994218D007DCA1F10401B1F5004189
:101E30000ED0012972D10FE0292A50D02A2A6DD163
:101E40004DE0062A6AD2DFE802F0A06A6A1F27275F
:101E5000608902280DD099E06189032913D1817826
:101E60002068007E0AF020FEE068A0F500410539F8
:101E700009D120680025007E0AF0FBFD01462A46B4
:101E8000204600F0D7F881E0608902287ED12068E2
:101E90000022406AC1780FE06189032976D1216868
:101EA00080784A6A0F2871D800F00F01D170E0687D
:101EB000A0F50042353A69D1204600F0ACF865E063
:101EC0006189042962D1216840884B6A1A8890424E
:101ED0005CD100200090997820460C3352E0618953
:101EE000042953D1216840884B6A198888424DD112
:101EF00000201946024601EB8005401CC0B2EA6092
:101F00000828F8D3E068A0F500412F393ED1002021
:101F1000009033F8022B13F80A1B32E035E0618998
:101F2000052933D12168B0F803204D6A29888A42F7
:101F30002CD100262A7A14E06B6890F802C013F8BE
:101F4000363063450BD185F802C004226B6802EB82
:101F5000C6029B583BB182782068984703E0761C04
:101F6000F6B2B242E8D8287AB0420FD9E068A0F5BC
:101F7000004132390AD1002000902A88A97805F161
:101F80000C032046FFF791FE00E000273846F8BD1D
:101F900070B50C00064622D02E4A4FF4DD73233272
:101FA0004C21002013F4DCF605000FD04C2148F43E
:101FB00057F0294865622060284860602848E06042
:101FC000F0B22146BDE870400AF024BA25480078F6
:101FD000C00704D0002224492448F5F740DD002042
:101FE00070BDF0B58DB00446006800901D461646E1
:101FF0000F46684607F016F90197ADF80A60208A87
:10200000ADF81200208DADF8280068460C9507F059
:102010007EF90DB0F0BD08B513468DF80210802191
:102020008DF8001037218DF8011003226946FFF763
:10203000D8FF08BD08B513468DF8021080218DF831
:10204000001007218DF8011003226946FFF7C9FF30
:1020500008BD00001CB38200FFFF0200011E8100CA
:10206000031D8100408120006C1580080030102184
:102070002DE9F0478846089D99461746824605F1A6
:1020800008012B23F44A0E46002013F469F60400DD
:1020900019D0B620207002206070A4F80280386841
:1020A00060602A46494604F1080047F4F6F6B2B2E9
:1020B0002146504600F01BFA0546204613F4DBF695
:1020C0002846BDE8F0871020FBE7F0B585B0B627BD
:1020D000DDE90B540A9E8DF8007008278DF8017019
:1020E0008DF802109DF80310ADF8046062F3020150
:1020F00063F3C7018DF803102968CDF80610002C92
:1021000005D02168CDF80A106168CDF80E1002D014
:102110004FF0000101E04FF00801C1F112026946E1
:1021200000F0E5F905B0F0BD70B5CC48032100F131
:10213000280203699847002801DA032400E00024FC
:10214000C64E00252836B572306A10B113F493F6E6
:102150003562204670BD2DE9FE4306464068318950
:10216000BE4F4518283769883A8807F10C09914213
:1021700001D0012463E0032029183A1809799278E4
:10218000914206D821D300B3A0F1010040B200284B
:10219000F2DAB87AB14CB846D8B1082205F1080194
:1021A000484647F42FF690B12369DBB104F12802C9
:1021B000022120469847AA484068400316D50022CD
:1021C000A849A948F5F74BDC10E0042437E00024C7
:1021D00035E0236943B1A14AA0482832002198473D
:1021E000002803DA02242AE0052428E0012088F8E8
:1021F0000A009A4869680024C0F82E10A968416353
:10220000E9688163708910380004000CA8F8240084
:1022100015D0D8F8200008B113F42DF68E4AB8F87E
:102220002410BB230D32002013F49AF5C8F82000C7
:10223000A8B1B8F8242005F1100147F42EF6FC727D
:1022400086483A882E30CDE90020CDF808903B7DB5
:10225000BA7A21463046FFF738FFBDE8FE830020FA
:1022600088F80A00C0E7FEB50746406839897B4E0A
:1022700045182836B5F803003188884201D001247A
:102280001BE00422B11D681D47F4BCF520B9B07AEB
:10229000012803D0022801D005240EE000240228E2
:1022A0000BD00220B072A87886F826006B4803692C
:1022B0001BB100F12802012198476848F4723430BC
:1022C0003288A0F10A010092CDE90110337DB27A83
:1022D00021463846FFF7F9FEFEBDFEB506464068CA
:1022E00031895E4D0844283541882A88914201D0C1
:1022F00001241AE0A97A39B10422A91D001D47F46E
:1023000081F518B1052410E000240EE00024AC7221
:10231000286A274610B113F4AEF52F624F480369BF
:102320001BB100F12802022198474C48EC7234306E
:102330002A88A0F10A010092CDE901102B7DAA7A2A
:1023400021463046FFF7C1FEFEBD3EB5054640685A
:102350002989424C0844283441882288914201D07E
:10236000012110E00422A11D001D47F44BF518B90E
:10237000A07A032804D008B1052104E0002102E07E
:10238000FFF7D2FE01463548E17234302388A0F1D0
:102390000A02CDE900320290237DA27A2846FFF797
:1023A00094FE3EBDFEB504462C4DC0686FF4364128
:1023B000283508440126298807284BD2DFE800F099
:1023C000044A0F20272E35006089022833D1A88BBC
:1023D0000090AA1C2046AB69FFF74AFE2BE06089FB
:1023E000082828D11D4800913430A0F10A02CDE917
:1023F00001202B7DAA7AE97A2046FFF766FE1AE0D3
:102400006089102817D32046FFF7A5FE13E06089E6
:10241000092810D12046FFF726FF0CE06089082824
:1024200009D12046FFF759FF05E06089082802D14D
:102430002046FFF78AFF0A488068400308D5A87A3B
:1024400000900849022250310748E368F5F707DB9E
:102450003046FEBD0026FBE751B3820030842000E9
:1024600040812000C81580080030102170B52D4B28
:1024700005462B480C461860AFF2D7001A61586029
:102480001946002009F0C6FF264828300580283864
:102490002168C0F82A1070BD10B5224B04685C6337
:1024A000406898630868C3F82E0003F128000121F2
:1024B00080F8262081720021C17210BD19490020C8
:1024C00028318872704710B5164C2834A07A02283B
:1024D00001D0002010BD94F82600012803D003206D
:1024E000A072012010BDFFF71FFEE072F9E770B582
:1024F0008EB004460068009016460D46684606F009
:1025000091FE0195ADF80A60208AADF81200208D89
:10251000ADF82800684606F0FAFE0EB070BD000067
:10252000FFFF00FE308420000EB5002A8DF8021057
:1025300005D01168CDF803105168CDF807104FF0A1
:10254000B7018DF800104FF008018DF8011002D08E
:102550004FF0000101E04FF00801C1F10B018AB218
:10256000694600F095FB0EBD7FB5B7258DF800508C
:1025700004258DF801508DF80210089C1168CDF8E3
:1025800003105168CDF80710CDF80B308DF80F40CF
:102590001022694600F07CFB04B070BD08B5B7227C
:1025A0008DF8002006228DF801208DF802100322FC
:1025B000694600F06DFB08BD2DE9F0471D468146D8
:1025C0008846032000EB450116460F464E23FE4A7F
:1025D000002013F4C5F3040018D0B72020700920A0
:1025E000607084F802802DB126B16A003146E01C8B
:1025F00047F453F4BAB22146484600F049FB054679
:10260000204613F438F42846BDE8F0871020FBE795
:102610001CB5B7248DF800400B248DF801408DF8CF
:1026200002108DF80320ADF804300622694600F050
:102630002FFB1CBDE5494978002900D101207047D6
:102640002DE9FE4F064640683189E04F4418DFF817
:1026500080833878DFF87C9338B10822B91CA01C3D
:1026600047F4D0F318B1032534E00F2532E0B88BDE
:102670006189884202D24FF002052BE002D94FF067
:10268000010527E0A18969B1B98AA1F10101884258
:1026900016D1D7E90310B1FBF0F200FB1211B961BA
:1026A00011B102E0072515E0B861A089B9690144BC
:1026B000491EB1FBF0F080B2142803D9042509E0CB
:1026C0003869F1E7B07A0F38C2B287F83420A07BBE
:1026D00080B10525D8F80400400305D52B4601221A
:1026E000BD494846F5F7BBD903B029463046BDE899
:1026F000F04F53E7387800250128F5D102203870D3
:10270000A089F883A07B7870B0480021283820F891
:10271000481F8170AD4804F10F018A46303047F4FC
:10272000BCF3D8F808004003DED5A08997F8342020
:10273000A17B8DE80700A849638904228C394C46A7
:102740004846F5F78CD9D8F808004003CCD597F85F
:1027500034105246A148F5F7D8DB9F4903460122C1
:1027600010392046BEE72DE9F04F02894168002468
:102770008D189649DFF85892DFF858A20A7885B08C
:10278000022A01D0E52495E088468969B8F81E2020
:1027900040898B185B1EB3FBF2F2C01E87B2D9F8DA
:1027A000080096B2400310D5B5F80100019102ABC4
:1027B000894983E8C100B8F814000090B8F81C30CB
:1027C00006224C315046F5F74AD9B5F80120B242FD
:1027D00001D3F4246EE0701E824205DAB8F81E00C0
:1027E000B84212D0FD2465E0B8F81E10D8F81830B1
:1027F000B3FBF1F001FB10300004000C00D10846DF
:10280000874202D040F20B1454E070481146203049
:10281000834605F093F810B14FF48A744AE0B5F896
:1028200001100122584605F093F8B5F80120B8F8D8
:102830001E00D8F82C1002FB00103A46E91C47F4A1
:102840002CF3002506E02946584605F077F818B124
:102850006D1CADB2B542F6D3B54229D3FFF7EAFEFF
:10286000002500285948A0F1280031D0036913B190
:10287000564A00219847012088F80000B8F81C004B
:102880004646401C80B2A8F81C00B8F814108842D4
:102890000ED13570D9F80800400305D54E49002205
:1028A000B8315046F5F7DBD8F06A13F4E4F2F5627C
:1028B000002C13D0D9F8080040030FD505B02346EB
:1028C0005046BDE8F04F44490122FC31F5F7C79866
:1028D00020F8485F4FF497748570EBE705B0BDE8CA
:1028E000F08F2DE9F047804641680089374D0C187C
:1028F0000822A91C601C47F485F218B100231A466F
:10290000032107E0B4F80900A98B884206D200230E
:102910001A4619464046BDE8F0474DE62A4A4FF4AC
:10292000B5730F322821002013F41AF24FF000047F
:102930000700264619D0E88BA969DFF8909001447A
:10294000491EB1FBF0F086B2002509F120090AE02A
:102950002946484604F0F2FF18B927F81450641CC1
:10296000A4B26D1CADB2B542F2D32CB1B44201D3C6
:10297000042102E0012100E0002123463A464046BE
:10298000FFF71AFE3846BDE8F04713F474B22DE99C
:10299000FC470446406821890C4DE26808444BF22C
:1029A000037C01270026DFF82880DFF828902978AB
:1029B000A2EB0C0362457DD017DC7D2A7BD07E2AFA
:1029C0007AD06FF437430BE088B38200A8842000EC
:1029D0004081200000301021E416800800005021C2
:1029E000D21815D0012A06D12AE0022B70D0042B70
:1029F00003D0072B6DD00027F1E06089022806D1B3
:102A000009B1AA1C00E000222046FFF78DFDD9E0A5
:102A100062890A2AFBD100297ED00822A91C801CC9
:102A200047F4F0F1002878D10126286904F0AEFFC0
:102A30000090AA1C31462046EB68FFF795FDC1E0E7
:102A400062890F2A6AD1022949D2827B921F1B2AEE
:102A500005D2002283189B781BB1082A06D30426CE
:102A60006DE0521CD2B2082AF4D3F8E7D0F80A205D
:102A70006B6A9A4201D9022661E001292AD0904965
:102A800050F8022F41F82A2F42684A608168E960B5
:102A9000007B04F086FF2861E9680144491EB1FB10
:102AA000F0F0A882AE83E86A08B113F4E4F14FF4C1
:102AB000F47302E04FE06FE072E0824A002029697F
:102AC00013F44EF1E86260B101202870064613E06D
:102AD0005EE06CE0811C0822A81C47F493F10126FB
:102AE0002DE0D8F80000400305D50122764948467C
:102AF0002B69F4F7B4DF0226D8F8080040031ED58E
:102B0000A98A2869CDE900016F490322503148465E
:102B1000EB68F4F7A4DF02E029E026E03BE0D8F818
:102B2000080040030BD5AA1C08216848F5F7EDD929
:102B3000654903460122AC314846F4F790DF286925
:102B400004F024FF0090AA1C31462046EB68FFF7F2
:102B50000BFD07BB43E062890A2A33D139B1082251
:102B6000A91C801C47F44EF118B104265DE700262D
:102B70005BE72E70E86A13F47EF15148EE6200269E
:102B80000369002BF2D000F12802012198474CE79D
:102B90002046FFF755FD15E02046FFF7E4FD11E064
:102BA00060890B280ED12046FFF79BFE0AE0608962
:102BB000022807D195F8292095F8281014232046DB
:102BC000FFF726FDD8F80800400308D528780090C4
:102BD0003D490222BC314846E368F4F740DF3846FD
:102BE000BDE8FC8710B5364A04466FF47F001060DC
:102BF000AFF26520116150601146002009F00AFC17
:102C00002F490C20283141F8244F48710A200871BF
:102C100010BD70B52A4C06680D4644F82A6F40680E
:102C20006060274C114628346818401EB0FBF1F054
:102C3000C4E90352A383A082E06A40B9214A40F26A
:102C40005A231C32002013F48BF0E06210B10120F3
:102C5000207070BD1E4800684003FAD5BDE8704082
:102C600000221C491C48F4F7FA9E70B5144C00254C
:102C700028342570E06A002802D013F4FCF0E562E5
:102C800070BD0F4828300078002800D00120704720
:102C900070B58EB004460068009016460D46684632
:102CA00006F0C0FA0195ADF80A60208AADF812006E
:102CB000208DADF82800684606F029FB0EB070BDE7
:102CC00080842000C0B382002418800800005021B6
:102CD000408120002419800800301021F0B591B007
:102CE00016460D46DDE917214FF0820C8DF838C0ED
:102CF000199F169C4FF0040C8DF839C02CB1052497
:102D00008DF83B208DF83C1000E0032401908DF8F5
:102D10003A3001A806F086FA0EA80290ADF80E40EF
:102D20001DB1ADF81650ADF82C6001A80D9706F056
:102D3000EEFA11B0F0BD7FB50D460646062409F047
:102D4000C2F960B10020CDE9000503908DF80800BC
:102D5000024601462B463046FFF7C0FF0446204698
:102D600004B070BDF8B50646406A0025002818D0AA
:102D700040788DF800008DF80120DCB28DF802401B
:102D8000336923B16A460221304698470546A006BA
:102D900006D1304600F046F901463046FFF7CBFF3A
:102DA0002846F8BD2DE9F84F1C46914688468246D4
:102DB00000F038F909F0FF068DF801608DF8026027
:102DC00005468DF80080DAF810302F4600201BB140
:102DD0006A46022150469847B1064FF001060CD0D2
:102DE00000280EDB01280CD004B16670924B4A46D5
:102DF0000021504600F0FDF903E0504600F012F9C2
:102E00000746BD4201D004B126703846BDE8F88FB0
:102E100038B5044681B9606A00280ED000214160AF
:102E20000091827841786B462046FFF7BBFF014650
:102E30002046009A00F0EDF8002038BD2DE9F0475B
:102E4000044640682189D4F800804618E0686FF491
:102E5000024186B04FF00109401809D0012829D05D
:102E6000022827D04FF0000906B04846BDE8F08799
:102E700060890228F8D1404600F0D4F8D8F82450F0
:102E80000646686808B1A87803E00021206800F0D1
:102E9000E1F9002103918DF808006978800600D0DF
:102EA0000120CDE90001228D218A33464046FFF7FB
:102EB00015FFD9E74FF0000ACDF810A060895746FA
:102EC000042802D0062808D00DE0D8F8103040467B
:102ED0004BB104AA0121984705E030798DF8100024
:102EE000707900EB8007B0780128BDD89DF81000FC
:102EF00000F03F003F28B7D2D8F82450F07828706F
:102F0000B07868709DF81000A8706F60CDF814A0BC
:102F10006FB101208DF81500404600F083F8064699
:102F2000464B3A460021404600F0FAF906E069783F
:102F300005AB4046049AFFF735FF0646E1680020DE
:102F4000A1F50242023A10D103909DF810008DF8CD
:102F500008006978800600D00120CDE90001228DAB
:102F6000218A33464046FFF7B9FE31464046059A6E
:102F700000F04FF878E77FB50546002400F052F8DE
:102F80000346002203948DF8084000941146284619
:102F90000194FFF7A3FE0020E2E670B50C000546A1
:102FA0001ED027482060606828BB4FF4D573254A9F
:102FB0000821002012F4D4F6234A244B606238B171
:102FC00000210160416022486060206950B112E038
:102FD0001078C00704D000221E491846F4F73FDDE0
:102FE000002070BD1079C00705D01A490022643155
:102FF0001846F4F734DDE06808B91748E06000F0DF
:1030000044F900F014FA21462846BDE8704009F062
:1030100001BAC2F30723002B03D112F0FF0F00D037
:1030200089E6704708B50021009103690BB16A4633
:1030300098479DF8000008BD652D8100112E810084
:10304000FFFF0010F5B38200408120000030102106
:103050003D2E810064198008772F8100C0B28F4A0D
:10306000810932F81110322211FB02F100F03F0009
:10307000484370472DE9F05F9B46894B0F468046D9
:103080000020596808E0A1F110000568454502D10B
:103090004468BC4202D049689942F4D1D4B29946FE
:1030A000A609DFF8F8A104F03F05494505D00472F0
:1030B00045723AF8161041813CE0784A56230832AE
:1030C0001821002012F44CF678B1C0E90087047290
:1030D00045723AF81610418100214161C0E903B1FF
:1030E00054464E46D9F804101AE06E480078C007DE
:1030F00004D000226C496D48F4F7B1DC0020BDE833
:10310000F09FA1F1100211F9073C127A920934F8EC
:10311000122013FB02F315FB02F2934202DC496812
:10312000B142EED10B6800F110025A600B680361E6
:103130000A6041610120E2E72DE9F041584E002785
:10314000756830E0A5F110046089401E00B260810E
:10315000002827DC94F90900002801DD401E607278
:10316000207A4E49800931F910006081617A012985
:1031700001D1401C6081D4F80CC0BCF1000F11D00B
:10318000C3B2617A207A61F30503800960F3871383
:1031900094E80700E047012804D194F909000028C9
:1031A00000DD67726D68B542CCD17168B1420ED056
:1031B00011F9072CA1F11000002A08DCD1E9002345
:1031C0005360D1E900210A6012F455F6EDE7B142EF
:1031D0000DD13448007AC00705D033490022483168
:1031E0003248F4F73CDCBDE8F04107F003B8BDE835
:1031F000F0812DE9F0411D4616460F468046002419
:1032000007F004F800282B4632463946404604D0E1
:10321000FFF730FF04462046E9E7FFF72BFF0028C1
:10322000F9D02349322006F0C3FF0124F3E730B57B
:103230001B4C62680BE0A2F110031D68854205D1AA
:103240005D688D4202D10020587230BD5268A242A2
:10325000F1D130BD30B5124C0023626808E0A2F114
:1032600010031D68854202D15D688D4202D052680C
:10327000A242F4D10020A24206D0597A61F305009F
:10328000197A890961F3871030BD0548016819B9B9
:10329000416809B9006040600120704710B48200A5
:1032A000E084200040812000781B8008003010213D
:1032B0003931810010B5C268044612B1D4E9010168
:1032C0009047204613F4DFF42046BDE8104012F486
:1032D000D2B57CB55B4C00222346216809E0A1F100
:1032E00010021568854202D10868186003E00B4699
:1032F0000968A142F3D1A14211D01620ADF8000017
:103300006846019206F0BEFD002808D14E480078BC
:10331000C00704D000224D494D48F4F7A0DB7CBD26
:103320002DE9F84F474E0546994693460C46DFF87F
:103330001881DFF81CA130681BE0A0F11002516871
:10334000A94215D19168A14212D159461046C2F83E
:103350000C9013F474F498F80800C00705D03B49AA
:10336000002244315046F4F77ADB0120BDE8F88FA3
:103370000068B042E1D16B23364A1421002012F4D8
:10338000EFF4070016D03448009064230022594619
:1033900032A004F016FA3860C0B1C7F80C90C7E943
:1033A00001543068386107F110003060384613F47A
:1033B00035F4DAE798F80000C00705D02349002269
:1033C0007C315046F4F74BDB0020CFE798F8000043
:1033D000C00705D01D490022D4315046F4F73FDB29
:1033E000384612F448F5EFE72DE9F0410646154856
:1033F0000025044602680CE0A2F110035F68B742A2
:1034000005D19B688B4202D11168216003E014460C
:1034100012688242F0D1824207D0284613F433F476
:103420002846BDE8F04112F426B5BDE8F081054814
:1034300010B5016801B90060AFF2871006F0ECFE2C
:10344000012010BDE884200040812000A4228008D3
:10345000003010212AB48200D332810064656C618F
:10346000790000002DE9F04F8DB08246DDE916B6F7
:10347000042000EB46051F46904689461D23A74AB7
:103480002946002012F46CF40446D0202070A820B5
:1034900060700120A070E77072005946201D46F44C
:1034A000FCF46846CDF800A005F0BCFE0194ADF830
:1034B0000A50ADF81290ADF82880684605F027FF55
:1034C0000546204612F4D7F428460DB0BDE8F08F2B
:1034D00010B590B00C46D5218DF80010A8218DF8BC
:1034E000011001218DF8021002908DF8032002A82E
:1034F00005F098FE0420CDF80CD0ADF81200608ADB
:10350000ADF81A00208DADF8300002A805F0FFFEDE
:1035100010B010BD2DE9F04F8DB08246189F914636
:10352000381D86B27D4A1D46884645230D323146F8
:103530000020DDF858B012F413F40446E8B2B5F5F3
:10354000400F04D2B5F5004F01D220700DE0744B4E
:10355000A5F50042C5F307219A4202D2217060709E
:1035600003E02A0C22706170A07084F803B03A4620
:10357000201D179946F491F46846CDF800A005F097
:1035800051FE0194ADF80A60ADF81280ADF82890B4
:10359000684605F0BCFE0546204612F46CF4284649
:1035A00093E72DE9FF4F8DB01C46DDE91A76DDF873
:1035B00070908346002132464B46084607E002EBF6
:1035C000C005891C6D88401C294489B280B298428C
:1035D000F5D3091D88B2514A8246014666231E3240
:1035E000002012F4BDF30546E0B2B4F5400F04D25A
:1035F000B4F5004F01D228700DE0494BA4F500420C
:10360000C4F307219A4202D22970687003E0220CA9
:103610002A706970A870281DEF70002414E016F855
:10362000341000F8011B36F8341006EBC407090A01
:1036300000F8011B80467A88796846F42EF4798870
:10364000641C01EB0800A4B24C45E8D36846CDF8F1
:1036500000B005F0E7FD0E98ADF812000F98ADF838
:1036600028000195ADF80AA0684605F050FE044612
:10367000284612F400F4204611B027E72DE9F04364
:103680008DB0074614981646C01C85B2234A994649
:10369000884684232B322946002012F461F3044625
:1036A000CF202070A82060700120A0702A464946D3
:1036B000E01C46F4F2F36846009705F0B3FD019470
:1036C000ADF80A50ADF81280ADF82860684605F0F4
:1036D0001EFE0546204612F4CEF30DB02846BDE886
:1036E000F0832DE9F04116460D00804609D00D4CBF
:1036F0004FF4D4770EB1214600E0394608F02FFC94
:1037000010B10020BDE8F08106B13C462946404694
:103710002C60BDE8F04108F07DBE000046B4820098
:103720000080BF00A801010010B51C224FF4FA610F
:10373000A948F8F7E8D8A84960B9C86850B1A748BF
:10374000007AC00708D0BDE810400022A449A5486F
:10375000F4F785990020C86010BD70B59E4840F20E
:10376000DC740C30042221460546F8F7CCD800283A
:103770000CD19948C168002908D00021C1602146B8
:103780002846BDE870400422F8F7C69870BD2DE9C0
:10379000F047924EDFF84C92144600254FF0FF3868
:1037A00041B18D4F1C3701290FD0022940D0032988
:1037B00060D142E0FFF765FA00285BD03079C0079E
:1037C00064D0874900222C315DE03C60307AC0072C
:1037D00026D08349002260314F464846F4F73FD94E
:1037E000307AC0071CD0DFF80082A21C04214046BA
:1037F000F4F78BDB7A490346012284313846F4F72B
:103800002ED9307AC0070BD0A21D04214046F4F710
:103810007CDB73490346012294313846F4F71FD903
:103820006D48D4F80610016094F82610017621E066
:10383000FFF71BFAFFF791FF1CE002F0B7FF012032
:10384000F6F75FDC388933F4F4F704460120F6F725
:10385000ACDC02F0C3FFFFF780FF74B163A14FF04F
:103860000450F4F7A5D802F0A1FF4FF47A710320B9
:1038700006F054FC2846BDE8F0873079C00705D033
:1038800057490022A4314846F4F7E9D84546F1E704
:103890002DE9F04714464FF0000811B101295ED11F
:1038A0005BE04D4DA08B4D4FDFF8389105F11C06C4
:1038B00038B1401CA882042240F2E47105F11400E2
:1038C00026E07460306828B90C200822A11C46F458
:1038D00099F248B13878C00706D041490122CC316D
:1038E00048463368F4F7BBD8E06A1C2280883081F0
:1038F000D4F802106960D4F80610A960E168E960A4
:10390000216929610121A982E8824FF4FA613248D4
:10391000F8F702D802F04AFFA18B2069E36A41431D
:103920003089A26903F014F802F058FF387AC00712
:103930000BD0A08B6421401C4843A18A0122B0FB1C
:10394000F1F330494846F4F78AD8A08AA18B401E8B
:10395000814204D1FEF7B7FD01E0FFF7FEFE4046CD
:1039600089E710B50CF069FBB0B1FFF7DDFE1A4C2A
:10397000E068002813D004F11C01E08A0881227E4F
:103980001C39201DFEF788FDD4E90312A38A201DEF
:10399000BDE81040FFF73DB9BDE81040DDE610BDC1
:1039A00010B5FFF7DAFEFEF789FDBDE81040FFF71E
:1039B0005CB908B514A00068AFF22D2200906946EA
:1039C0004FF4D470FEF752FDAFF23B114FF4483084
:1039D000FFF708F908BD0000EC84200040812000BA
:1039E000CC2380080030102100005021646675202F
:1039F000737563636573732C207265626F6F7421D6
:103A000000000000E02480080100000010B5012241
:103A1000BB491004FAF7E2FF4FF08040D0F8601382
:103A200021F48061C0F8601310BD70B504460078C1
:103A30000D46FF2820D0A5F57F40FF3811D008465D
:103A400016F02CFD9FEDAF1B53EC112B16F076FDFD
:103A500016F0E0FC0146207A30B1C1F5FA526068F8
:103A600007E04FF4FA51F6E7C1F5FA530A46194652
:103A70006068FBF71CFA658170BD70B5044600787C
:103A80000D46FF2803D02046FFF7CFFFA58170BD6C
:103A900001469E48F1E770B50446007890B0FF28D3
:103AA0003AD001250026CDE9005633462A4629465C
:103AB000FDF794DC61782078FDF75CDC02A8FBF769
:103AC000D2F9ADF812506089A0F57F41FF3910D0CE
:103AD00016F0E4FC9FED8B1B53EC112B16F02EFD22
:103AE00016F098FC217A39B10690C0F5FA5007908B
:103AF00006E04FF4FA50F5E7C0F5FA51CDE90610AB
:103B0000ADF81050ADF80C6002A96068FBF718F929
:103B100001216068FBF7B5F910B070BD70B57B4D41
:103B2000002405EB0410FFF7B6FF641C14F0FF043B
:103B3000F7D0BDE870404FF6FF70A9E730B40478C5
:103B4000FF2C19D0002917D0002A15D0642B13D8C8
:103B50006F4C6243B2FBF1F4B2FBF1F15C43C3F191
:103B600064025143027A40680AB1224601E00A46E3
:103B7000214630BCFBF79BB930BC704713460A4660
:103B800001466248DAE70021604876E71CB5014645
:103B90000078FF280BD0097A09B1002100E001214B
:103BA0000122CDE9002100231946FDF717DC1CBDD9
:103BB00070B5564D002405EB0410FFF7E7FF641CB9
:103BC00014F0FF04F7D070BD1CB552480078C1074F
:103BD0004FF0010004D0002300900122019004E086
:103BE00000210B460122CDE9000100211720FDF73D
:103BF000F5DB1CBD704738B51346040004D0012C1A
:103C000006D0022C1FD117E00A4640F26C7102E088
:103C10000A464FF4EE611846F7F77EDE98B13E494A
:103C20000978C90706D00090234602223B493C4848
:103C3000F3F715DF002038BD542900D954210A4676
:103C400040F27C71E7E7012038BD10B5134620B182
:103C5000012806D002281BD116E00A4640F26C71FA
:103C600002E00A464FF4EE611846F7F74CDE78B1F1
:103C700029480078C00705D028490022403128484B
:103C8000F3F7EDDE002010BD0A4640F27C71EBE751
:103C9000012010BD10B5234812F4F5F7214900208A
:103CA000091F0A4648600870BDE810400421A2E7D9
